:100000000C9464000C948C000C948C000C948C0068
:100010000C948C000C948C000C948C000C948C0030
:100020000C948C000C948C000C948C000C94250D7A
:100030000C948C000C948C000C948C000C948C0010
:100040000C94180F0C948C000C9419110C946711DB
:100050000C948C000C948C000C948C000C948C00F0
:100060000C948C000C948C000000000024002700ED
:100070002A0000000000250028002B0000000000DE
:1000800023002600290004040404040404040202DA
:100090000202020203030303030301020408102007
:1000A0004080010204081020010204081020000012
:1000B0000007000201000003040600000000000029
:1000C00000003501D3122E0111241FBECFEFD8E05E
:1000D000DEBFCDBF11E0A0E0B1E0EAECF2E302C088
:1000E00005900D92A43CB107D9F712E0A4ECB1E061
:1000F00001C01D92A53DB107E1F710E0C6ECD0E0CC
:1001000004C02297FE010E945419C23CD107C9F7CE
:100110000E9429130C9458190C9400001F93FC01A1
:1001200099278827BC01E89411911032E9F319301E
:1001300010F01E30C8F31B3251F01D3249F46894A0
:1001400006C00E94EE00610F711D811D911D11916D
:1001500010531A30B0F33EF49095809570956195E8
:100160007F4F8F4F9F4F1F910895FB01DC0102C00D
:1001700001900D9241505040D8F70895DC0101C024
:100180006D9341505040E0F70895FC01819186172E
:1001900021F08823D9F7992708953197CF01089541
:1001A000FB01DC018D91019080190110D9F3990BAD
:1001B0000895FB01DC0101900D920020E1F7089504
:1001C000FB01DC014150504030F08D9101908019CD
:1001D00019F40020B9F7881B990B0895592F482F5F
:1001E000372F262F660F771F881F991F660F771FDF
:1001F000881F991F620F731F841F951F660F771F3B
:10020000881F991F08950F9381309105E1F46F5F66
:100210007F4F11F584EC91E00E94B10B87EC91E0E7
:1002200069E070E045E050E026E030E008E20E943E
:10023000010987ED91E060E170E042E122E530E004
:100240000E948F0B09C0892B39F46F5F7F4F21F417
:1002500087ED91E00E940D0B0F91089580E090E0F2
:100260006FEF7FEF0E940301089581E090E06FEF50
:100270007FEF0E940301089587E060E00E94711003
:1002800082E090E00E94ED0F87E061E00E94711033
:1002900082E090E00E94ED0F87E060E00E94711024
:1002A0000895892B19F084E060E002C084E061E0E9
:1002B0000E94711082E090E00E94ED0F08951F935C
:1002C000182F882319F48AE060E002C08AE061E018
:1002D0000E9471101093F70185E090E00E94ED0FED
:1002E0001F91089580E00E945F01089581E00E94BF
:1002F0005F0108956091A5017091A60184EC91E0E1
:100300000E94370C08958091A7019091A8010FC019
:1003100084EC91E00E94370C64E070E080E090E0B3
:100320000E94940F8091F4019091F50101979093B0
:10033000F5018093F4016091F4017091F5018091D1
:10034000A5019091A6016817790714F70895809187
:10035000A5019091A6010FC084EC91E00E94370C9A
:1003600064E070E080E090E00E94940F8091F401DE
:100370009091F50101969093F5018093F4016091BD
:10038000F4017091F5018091A7019091A801861761
:10039000970714F70895EF92FF920F931F93CF934F
:1003A000DF938C0184EC91E063E170E00E941E0D0C
:1003B000C0E0D0E078010894E108F1081CC00E9478
:1003C000A7016091AA017091AB01882777FD809504
:1003D000982F0E94940F0E948301CE15DF0551F0E3
:1003E0006091AC017091AD01882777FD8095982FC1
:1003F0000E94940F2196C017D1070CF368EC70E0AF
:1004000080E090E00E94940F84EC91E00E94CB0B7E
:10041000DF91CF911F910F91FF90EF9008951F935F
:10042000CF93DF93182FC0E0D0E007C087EC91E0B6
:100430006C2F412F0E948608219687EC91E00E9444
:100440009A0890E0C817D9078CF387EC91E00E94D6
:10045000E408DF91CF911F910895CF93DF93C0E01F
:10046000D0E086E090E00E940F0268EC70E080E04F
:1004700090E00E94940F82E090E00E940F0268ECEE
:1004800070E080E090E00E94940F2196C330D10587
:1004900041F7DF91CF910895282F2095253558F405
:1004A000822F90E0AC01440F551F480F591F842F35
:1004B000809560E00DC02A3A70F42555822F90E0B7
:1004C000BC01660F771F680F791F462F409580E0AB
:1004D0000E94E00908952A5A30E0C901880F991F47
:1004E000820F931F682F609540E00E94E0090895F5
:1004F0006F927F928F929F92AF92BF92CF92DF9234
:10050000EF92FF920F931F935B016C0139014A0137
:1005100087EC91E00E949A08E82EC401B3016A19A1
:100520007B098C099D090E94D4175B016C01C401F1
:10053000B3010E94D4179B01AC01C601B5010E9412
:1005400039175B016C01FF240027F7FC0095102F81
:10055000C801B7010E94D4179B01AC01C601B501C7
:100560000E9460180E94A1177B018C01F7FC19C042
:1005700087EC91E042E00E94860887EC91E00E94BF
:10058000E40880E060E048EC0E94E0099B01AC01D7
:1005900087ED91E0B7010E94440987ED91E00E9448
:1005A0004B0A1F910F91FF90EF90DF90CF90BF907B
:1005B000AF909F908F907F906F900895CF93DF932F
:1005C0008091EC019091ED0101969093ED01809363
:1005D000EC018F3F910529F024F01092ED0110926B
:1005E000EC01C0E0D0E00DC08091EC018C0F0E94C6
:1005F0004C029B01AC0187ED91E0BE010E944409D1
:10060000219687ED91E00E94000AC817D90760F390
:1006100087ED91E00E944B0A64E170E080E090E099
:100620000E94940F87EC91E06091EE014091F001FF
:100630000E94860887EC91E00E94E40880918E0178
:100640002091EE013091EF01882319F02F5F3F4F89
:1006500002C0215030403093EF012093EE01C09151
:10066000EE01D091EF011C161D064CF487EC91E0D1
:100670000E949A0890E00197C817D9078CF090E083
:1006800080918E01882309F491E090938E018091EE
:10069000F0019091F10101969093F1018093F001A6
:1006A0008091F0019091F101079734F081E090E0A2
:1006B0009093F1018093F001DF91CF910895EF9233
:1006C000FF920F931F93CF93DF9380E060E040E0B1
:1006D0000E94E0097B018C01C0E0D0E008C087EDFA
:1006E00091E0BE01A80197010E944409219687ED7F
:1006F00091E00E94000AC817D90788F387ED91E0BE
:100700000E944B0ADF91CF911F910F91FF90EF90C4
:1007100008956F927F928F929F92BF92CF92DF92B5
:10072000EF92FF920F931F93CF93DF93CC24DD249E
:10073000682E772488249924B4C0CE018C0D9D1D89
:100740006FEF70E00E9402190E944C029B01AC0105
:10075000BE016E0D7F1D87ED91E00E944409239636
:1007600087ED91E00E94000AC817D90730F387EDA2
:1007700091E00E944B0A10E02AC087EC91E0612FC3
:1007800044E00E9486081F5F87EC91E0612F46E0FD
:100790000E9486081F5F87EC91E0612F42E00E9473
:1007A00086081F5F87EC91E0612F43E00E94860876
:1007B0001F5F87EC91E0612F41E00E9486081F5F78
:1007C00087EC91E0612F45E00E9486081F5F87EC6F
:1007D00091E00E949A08181780F287EC91E00E943D
:1007E000E40800E02FC087EC91E060E00E9454082C
:1007F000B82E11E00DC087EC91E0612F0E945408E3
:10080000482F115087EC91E0612F0E9486081E5FEF
:1008100087EC91E00E949A08181768F387EC91E042
:100820000E949A08682F615087EC91E04B2D0E943E
:10083000860887EC91E00E94E408C401B3010E949D
:10084000940F0F5F87EC91E00E949A08081758F206
:10085000C0E0D0E00CC0BE016E0D7F1D87ED91E0C1
:1008600020E030E040E050E00E944409239687ED0C
:1008700091E00E94000AC817D90768F30894E11CA8
:10088000F11C83E0E816F10419F0C0E0D0E068CF75
:1008900082E390E0C80ED91E9CE2C91691E0D90609
:1008A00019F0EE24FF24F1CFDF91CF911F910F912A
:1008B000FF90EF90DF90CF90BF909F908F907F90B0
:1008C0006F9008958FEA92E060E071E00E949E13BD
:1008D00008958FEA92E062E071E00E949E1308950D
:1008E000BC018FEA92E00E94E41308950F931F93D6
:1008F000DF93CF93CDB7DEB727970FB6F894DEBF5F
:100900000FBECDBF81E10E94C510019711F080E0BC
:100910001DC08FEA92E064E071E00E949E1380E0C7
:1009200090E00E9451011092F3011092F2018E01A9
:100930000F5F1F4FC80169E071E00E94AA15C8014E
:100940000E947004C8010E94521681E027960FB6DB
:10095000F894DEBF0FBECDBFCF91DF911F910F91F5
:100960000895AF92BF92CF92DF92EF92FF920F93D2
:100970001F93CF93DF93EC01C090F201D090F3016D
:10098000FC01EE0FFF1FE157FE4F0190F081E02DBB
:10099000EC15FD0509F48AC0CE16DF0660F40E944E
:1009A00076018FEA92E061E171E00E949E13F1E02E
:1009B000EF2EF12C0BC00E9472018FEA92E068E1E9
:1009C00071E00E949E13EE24EA94FE2C81E090E0F8
:1009D0000E94510162E370E080E090E00E94940F79
:1009E0008E01000F111F01571E4F74EAA72E76E0EB
:1009F000B72E3BC00E946E0F4091F2015091F3015F
:100A0000CA018C199D0997FF03C0909581959F4F4E
:100A1000F80120813181F6E0843A9F077CF0CA0119
:100A2000821B930B97FF03C0909581959F4F26E003
:100A3000843A92071CF0C0E0D0E003C0E501C81B77
:100A4000D90B0E943C018091A3019091A4018C0FCD
:100A50009D1F0E94ED0F6FEFE6166FEFF606D9F4BB
:100A60000E9476048823B9F00BC02091F2013091E6
:100A7000F301F801808191812817390709F0BACF75
:100A80008091A901882311F00E942D0280E090E05E
:100A90000E9451010BC08091F2019091F3018E0DE3
:100AA0009F1D9093F3018093F201DFCFDF91CF91EF
:100AB0001F910F91FF90EF90DF90CF90BF90AF907C
:100AC00008950F931F93DF93CF93CDB7DEB727978A
:100AD0000FB6F894DEBF0FBECDBF0E94720181E059
:100AE00090E00E9451018E010F5F1F4FC8016FE11E
:100AF00071E00E94AA15C8010E947004C8010E94FA
:100B0000521608C00E943C018091A3019091A4015B
:100B10000E94ED0F0E9476048823A1F327960FB65A
:100B2000F894DEBF0FBECDBFCF91DF911F910F9123
:100B300008954F925F926F927F928F929F92AF92A1
:100B4000BF92CF92DF92EF92FF920F931F93DF93AA
:100B5000CF93CDB7DEB72E970FB6F894DEBF0FBE9A
:100B6000CDBF4C018B010E94600F2B013C0188EE30
:100B700093E09C01029FC001039F900D129F900D76
:100B800011245C01CC24B7FCC094DC2C8091A90119
:100B9000882321F086E090E00E940F028E010F5F13
:100BA0001F4FC80161E371E00E94AA15C8010E94AD
:100BB0007004C8010E945216EE24FF24870128C049
:100BC00031E08316910429F082E08816910441F403
:100BD00002C08DE001C08BE00E94C510892B71F12D
:100BE0000E94600F7B018C01E418F50806091709C3
:100BF0008091A901882331F0C801B701A6019501B0
:100C00000E94780261E070E080E090E00E94940F22
:100C1000EA14FB040C051D0598F28E01085F1F4FB6
:100C2000C80166E471E00E94AA15C8010E94700420
:100C3000C8010E94521680E0892809F481E02E96AE
:100C40000FB6F894DEBF0FBECDBFCF91DF911F91DD
:100C50000F91FF90EF90DF90CF90BF90AF909F905B
:100C60008F907F906F905F904F9008952F923F925A
:100C70004F925F926F927F928F929F92AF92BF92AC
:100C8000CF92DF92EF92FF920F931F93DF93CF9358
:100C9000CDB7DEB7EF970FB6F894DEBF0FBECDBF6E
:100CA0003C018E010F5F1F4FC801B3010E94471620
:100CB000C8010E947004C8010E9452168E01085F8C
:100CC0001F4FC80168E571E00E94AA15C301B80171
:100CD0000E94EE14882311F400E013C08E01015F1E
:100CE0001F4FC8016AE571E00E94AA15C301B8014F
:100CF0000E948614811181E0082FCE010F960E9478
:100D00005216CE0108960E945216002309F4CEC056
:100D1000C3016CE571E00E94A814882319F00E94B9
:100D200061057FC08E010A5E1F4FC80165E671E054
:100D30000E94AA15C301B8010E94EE14F82EC80142
:100D40000E945216FF2009F472C081E08093F601E0
:100D5000C3016CE70E9481145C010894A11CB11CC2
:100D6000C3016CE7A5010E9463146C014C01089457
:100D7000811C911CC3016CE7A4010E9463147C01D7
:100D80008E01035E1F4FC801B301A50196010E94A9
:100D9000DD15C8010E9452141B012C01C8010E94DC
:100DA00052168E010C5D1F4FC801B301A4019701BB
:100DB0000E94DD15C8010E9452145B016C01C8013C
:100DC0000E9452168E01055D1F4F0894E11CF11C14
:100DD000C801B301A7010E942416C8010E94521441
:100DE00000E0613071058105910509F401E0CE0153
:100DF0008B960E945216002351F48091A9018130F4
:100E000031F480E090E00E940F020E945F030093A3
:100E1000A9010E946105C101B5010E9499058823BD
:100E200019F00E94690442C00E9462043FC0C301DD
:100E30006CE70E9481147C018E010E5C1F4FC8017B
:100E4000B30141E050E097010E94DD15C8010E9406
:100E500052145B016C01C8010E9452168E01075C9E
:100E60001F4F0894E11CF11CC801B301A7010E94A7
:100E70002416C8010E9452146B017C01C8010E9413
:100E80005216C5010E94B104C6010E94CB010E9406
:100E90006904AB2859F4CD2849F48091A90188232D
:100EA00029F01092F6018FE00E948903EF960FB6A9
:100EB000F894DEBF0FBECDBFCF91DF911F910F9190
:100EC000FF90EF90DF90CF90BF90AF909F908F906A
:100ED0007F906F905F904F903F902F900895EF928A
:100EE000FF920F931F93DF93CF93CDB7DEB72E976B
:100EF0000FB6F894DEBF0FBECDBF8FEA92E00E941E
:100F000029121816190694F58E010F5F1F4FC8019C
:100F10006FE671E00E94AA15F02EE12E0FC08FEA55
:100F200092E00E945A12682F8F2D9E2D0E94641508
:100F300062E070E080E090E00E94940F8FEA92E01F
:100F40000E942912892B59F78E01085F1F4FC80193
:100F50006F2D7E2D0E944716C8010E943606C801DB
:100F60000E9452168F2D9E2D0E9452168091A9012B
:100F7000882331F08091F601882311F40E94DE026B
:100F80002E960FB6F894DEBF0FBECDBFCF91DF9186
:100F90001F910F91FF90EF900895EF92FF920F93A2
:100FA0001F9384E061E00E94321087E061E00E94BC
:100FB00032108AE061E00E9432108FEF61E00E94FF
:100FC00032108FEF61E00E9432108DE060E00E94ED
:100FD00032108DE061E00E9471108BE060E00E94B1
:100FE00032108BE061E00E94711081E160E00E94AC
:100FF000321081E161E00E9471108FEF61E00E9488
:1010000032108FEF61E00E9432108FEF61E00E949A
:1010100032108FEF61E00E9471108FEF61E00E944B
:10102000711080E090E00E94510180E00E945F0119
:1010300004EC11E0C80163E170E00E941E0D87ED31
:10104000E82E81E0F82EC7010E94390AC7010E94EC
:101050004B0A80E090E00E940F02BFEAEB2EB2E064
:10106000FB2EC70140E855E260E070E00E94A2114B
:10107000C70160E771E00E949E1381E090E00E944A
:10108000510181E00E945F010E947A0164EF71E0EA
:1010900080E090E00E94940FC8010E94CB0B1F914A
:1010A0000F91FF90EF900895FC018785861710F44B
:1010B00080E008950584F685E02DE60FF11D80811E
:1010C0008F77482F50E020E030E0CA0180739070A5
:1010D000892B11F021E030E0B901660F771F20E085
:1010E00030E0CA018C709070892B11F021E030E063
:1010F000220F331F220F331F962F922B80E0437055
:101100005070452B09F081E0892B0895FC018785FB
:10111000861778F040FD02C080E801C081E842FDFA
:10112000846041FD80610584F685E02DE60FF11DA8
:1011300080830895FC0187850895EF92FF920F93B5
:101140001F93CF93DF938C01C7E0D0E0E62EFF24FE
:10115000C7010C2E02C0959587950A94E2F780FF8F
:1011600004C0F801808161E003C0F801808160E083
:101170000E947110F801838161E00E947110F801F2
:10118000838160E00E9471102197FFEFCF3FDF075E
:10119000F9F6DF91CF911F910F91FF90EF90089595
:1011A0000F931F938C01FC01828161E00E947110FA
:1011B00081E090E00E94ED0FF801828160E00E94E2
:1011C00071101F910F9108951F93CF93DF93EC013E
:1011D00010E00DC090E00197811B9109ED85FE851F
:1011E000E80FF91FCE0160810E949D081F5F8F8567
:1011F000181780F3CE010E94D008DF91CF911F9184
:1012000008950F93CF93DF93EC0168838FEF898369
:101210004A832B831C820F87802F90E00E94E30D6E
:101220008D879E8790E020E809C08F85891728F078
:10123000ED85FE85E90FF11D20839F5F9017A8F3D0
:10124000888160E00E947110888161E00E94321004
:10125000898160E00E947110898161E00E943210F2
:101260008A8160E00E9471108A8161E00E943210E0
:101270008B8160E00E9471108B8161E00E943210CE
:10128000DF91CF910F910895BF92CF92DF92EF92AD
:10129000FF920F931F93CF93DF938C01FB01BA0151
:1012A000A901DC0112968D919C911397E817F9071B
:1012B00008F07CC0CB01AA27BB27D82EBB27A72FBD
:1012C000962F852FC82EB42ED8011796FC90FF209C
:1012D00061F12F2D30E08D2D90E0DC01A29FC00147
:1012E000A39F900DB29F900D1124892F990F990BF8
:1012F000D82E8C2D90E0DC01A29FC001A39F900D01
:10130000B29F900D1124892F990F990BC82E842F0D
:1013100090E0DC01A29FC001A39F900DB29F900DB1
:101320001124892F990F990BB82ED8011D96EC9096
:101330001D971A968C911A9718962D913C91199792
:10134000E81641F4EF01CC0FDD1FCE0FDF1FC20FF7
:10135000D31F19C0EF01CC0FDD1FCC0FDD1FC20F53
:10136000D31F872F9927AA27BB27282FFF2039F0C3
:101370008F9DC0011124892F990F990B282FFE01F1
:10138000EE0DF11D2083F8018285FE01E80FF11DAD
:10139000D082D8011B968C911B97FE01E80FF11D9E
:1013A000C0821C968C91C80FD11DB882DF91CF915D
:1013B0001F910F91FF90EF90DF90CF90BF90089515
:1013C0000F931F93062F10E020E030E0322F212FE3
:1013D000102F002750E060E070E0042B152B262B27
:1013E000372B90E0A0E0B0E0DC0199278827082B9C
:1013F000192B2A2B3B2BB801C9011F910F9108957E
:10140000FC018281938108951F93CF93DF93EC01B8
:10141000162F8981882331F08E8187FD03C060E01B
:101420000E9432101E838981882341F0812F61E060
:101430000E943210812F60E00E947110412F50E015
:10144000CA018A579F4FFC018491282F30E0220F58
:10145000331F2E583F4FF901859194919B8B8A8BB6
:1014600046565F4FFA0164916C8BDF91CF911F91CB
:101470000895CF93DF93EC018E8187FD07C061E073
:101480000E9432108E8160E00E94711081E0898399
:10149000DF91CF910895EF92FF920F931F93DF9307
:1014A000CF93CDB7DEB727970FB6F894DEBF0FBE48
:1014B000CDBF8C01DC0118968D919C911997892BD9
:1014C00009F49EC00E946E0FF80126853785408979
:1014D0005189621B730B840B950B6C5271408040D9
:1014E000904080F3F894D80114968D919C911597B3
:1014F0009F838E831896ED90FC901997F701819148
:101500007F0189838C915296ED91FC91539754966B
:101510009C91882309F430C08081892B8A83808143
:10152000909598239B838B818D8388E08C836A813F
:101530005B8129813C814D818E819F81D7016083B0
:1015400027FD462F3A954083452F39F0221F00C0D2
:1015500000005083000000C0F2CF38E02D9150838E
:101560000000019761F7D8015396FC93EE935297D0
:1015700029833C834D833AC08081892B8A83808173
:10158000909598239B838B818C8388E08D836A81DF
:101590005B8129813D814C818E819F81D701608350
:1015A00027FD462F00C000C0408300C000C000C01F
:1015B00000C000C050830000452F3A9541F0221F23
:1015C000000000C000C000C000C000C0E8CF38E08C
:1015D0002D9100C0508300C0019709F7D8015396A0
:1015E000FC93EE93529729833D834C839F838E8394
:1015F00078940E946E0FF80166877787808B918BB5
:1016000027960FB6F894DEBF0FBECDBFCF91DF9106
:101610001F910F91FF90EF900895CF93DF93EC010E
:1016200088859985009711F00E94800E8E8187FD34
:1016300003C060E00E943210DF91CF9108950F93B4
:101640001F93CF93DF93EC018B01888599850097D9
:1016500011F00E94800E9D858A85981719F024E06C
:1016600030E002C023E030E0209FC001219F900DB8
:10167000309F900D11249D838C830E94E30D9987E8
:101680008887009749F04C815D8160E070E00E949E
:10169000BE001B830A8304C01D821C821B821A8227
:1016A000DF91CF911F910F910895FC0145853285FF
:1016B000CB01A6E096958795AA95E1F7837085877B
:1016C000CB0154E0969587955A95E1F78370828710
:1016D000CB01969587959695879583708387862FFE
:1016E0008370848710826F3F710509F010F481E0E8
:1016F000808380859185892B89F020E0958582857E
:10170000981709F421E080E0431709F481E02817D5
:1017100029F062817381CF010E941F0B0895DF922F
:10172000EF92FF920F931F938C017B01D42EFC014B
:10173000118217821186108616861786108A118AE2
:10174000B9010E94550BC801B7010E941F0BC801C7
:101750006D2D0E94040A1F910F91FF90EF90DF9072
:101760000895FC018091F8018C3090F480838F5FA4
:101770008093F801815090E0FC01EE0FFF1FE80F0D
:10178000F91FE750FE4F88EB9BE092838183089519
:101790008FEF80830895DC018C9190E0FC01EE0FC7
:1017A000FF1FE80FF91FE750FE4F80818F7B80837A
:1017B0008C916CE00E94E21890E0AC01440F551F40
:1017C000480F591F440F551F440F551F20E030E0AC
:1017D000C901840F951FFC01EE0FFF1FE80FF91FD1
:1017E000E750FE4F808186FD05C02F5F3F4F2C30B4
:1017F000310571F70895FC0120812C30B8F5818105
:10180000992787FD909548E850E0481B590B440FF5
:10181000551F440F551F6417750784F0828199275F
:1018200087FD909548E552E0481B590B440F551F22
:10183000440F551F641775070CF4AB01425050401C
:10184000CA01AA2797FDA095BA2F880F991FAA1F32
:10185000BB1F4FB7F89430E0F901EE0FFF1FE20F06
:10186000F31FE750FE4F928381834FBF0895AF92DD
:10187000BF92CF92DF92EF92FF920F931F93CF937D
:10188000DF93EC019B0182E0603278070CF048C0E6
:1018900077FF03C020E030E005C0653B710514F020
:1018A00024EB30E000D000D0B901882777FD809587
:1018B000982F2981332727FD3095E8E8AE2EB12CEB
:1018C000A21AB30AAA0CBB1CAA0CBB1CCC24B7FCE2
:1018D000C094DC2CEA81FF27E7FDF09528E532E093
:1018E0002E1B3F0B220F331F220F331F442737FDC0
:1018F0004095542FEDB7FEB7218332834383548341
:1019000020E030E040E050E004EBE02EF12C012D2F
:10191000112D0E94F8139B010F900F900F900F90C4
:10192000CE01B9010E94FB0BDF91CF911F910F9166
:10193000FF90EF90DF90CF90BF90AF900895CF923F
:10194000DF92EF92FF921F93CF93DF93EC01162F5C
:101950007A01690188818C3008F064C0862F61E0CB
:101960000E943210888190E0FC01EE0FFF1FE80F0B
:10197000F91FE750FE4F1F738081807C812B80838D
:1019800080E292E08E199F0964E070E00E940219E3
:10199000698380E699E08C199D0964E070E00E94FB
:1019A00002196A83A8818A2F6CE00E94E218682FCE
:1019B00070E0AB01440F551F460F571F440F551FD2
:1019C000440F551F20E030E0C901840F951FFC0132
:1019D000EE0FFF1FE80FF91FE750FE4F808186FDD5
:1019E00015C02F5F3F4F2C30310571F724C0109286
:1019F000800082E080938100109285001092840024
:101A0000B19A80916F00826080936F008A2F90E07E
:101A1000FC01EE0FFF1FE80FF91FE750FE4F80811A
:101A2000806480838881DF91CF911F91FF90EF9038
:101A3000DF90CF900895672BD1F2E8CF40E252E0DB
:101A400020E639E00E949F0C08951F920F920FB676
:101A50000F9211242F933F934F935F936F937F9334
:101A60008F939F93AF93BF93EF93FF9380911D024A
:101A700087FF05C010928500109284002BC0209132
:101A80001D02332727FD30958091F80190E028173B
:101A9000390704F580911D02992787FD9095FC0177
:101AA000EE0FFF1FE80FF91FE750FE4F808186FF02
:101AB00011C080911D02992787FD9095FC01EE0FC2
:101AC000FF1FE80FF91FE750FE4F80818F7360E022
:101AD0000E94711080911D028F5F80931D022091E2
:101AE0001D02332727FD30958091F80190E02817DB
:101AF00039070CF04EC080911D028C300CF049C0AB
:101B0000209184003091850080911D02992787FDE6
:101B10009095FC01EE0FFF1FE80FF91FE750FE4FF5
:101B200081819281280F391F30938900209388008A
:101B300080911D02992787FD9095FC01EE0FFF1FF4
:101B4000E80FF91FE750FE4F808186FF2BC0809180
:101B50001D02992787FD9095FC01EE0FFF1FE80FEE
:101B6000F91FE750FE4F80818F7361E00E94711072
:101B700019C080E49CE905C08091840090918500A3
:101B8000049690938900809388008FEF80931D02C4
:101B900009C08091840090918500049680549C49EE
:101BA00040F3EACFFF91EF91BF91AF919F918F9159
:101BB0007F916F915F914F913F912F910F900FBE49
:101BC0000F901F9018950F931F93CF93DF93BC0135
:101BD0008230910510F462E070E0E091D302F09160
:101BE000D40240E050E0A0E0B0E024C080819181C8
:101BF00086179707D0F08617970771F48281938133
:101C0000109729F013969C938E9312972CC0909363
:101C1000D4028093D30227C04115510519F08417CF
:101C2000950718F48D01AC01EF01DF0182819381EA
:101C30009C01F9013097D1F641155105F9F0CA011F
:101C4000861B970B8430910580F48A819B81011556
:101C5000110521F0F8019383828304C09093D4028C
:101C60008093D302FE01329645C0FE01E80FF91FB2
:101C7000619371930297998388833CC08091D102CC
:101C80009091D202892B41F48091B0019091B101E1
:101C90009093D2028093D1024091B2015091B3014E
:101CA0004115510541F44DB75EB78091AE01909159
:101CB000AF01481B590B2091D1023091D202241759
:101CC0003507B0F4CA01821B930B8617970780F083
:101CD000AB014E5F5F4F8417950750F0420F531FC3
:101CE0005093D2024093D102F9016193719302C0E3
:101CF000E0E0F0E0CF01DF91CF911F910F910895C7
:101D0000CF93DF939C01009709F48FC0EC012297D9
:101D10001B821A826091D3027091D4026115710501
:101D200081F488819981820F931F2091D102309193
:101D3000D2022817390739F5D093D202C093D102C5
:101D400074C0DB0140E050E0AC17BD0708F1BB8375
:101D5000AA83FE0121913191E20FF31FAE17BF0755
:101D600079F48D919C911197280F391F2E5F3F4F69
:101D70003983288312968D919C9113979B838A8334
:101D80004115510571F4D093D402C093D3024DC0D4
:101D900012968D919C911397AD01009711F0DC0183
:101DA000D3CFDA011396DC93CE931297FA012191E7
:101DB0003191E20FF31FCE17DF0769F48881998113
:101DC000280F391F2E5F3F4FFA01318320838A810C
:101DD0009B8193838283E0E0F0E0DB0112968D919A
:101DE0009C911397009719F0BC01FD01F6CFAB0150
:101DF0004E5F5F4FDB018D919C91840F951F209169
:101E0000D1023091D2022817390779F4309729F49A
:101E10001092D4021092D30202C013821282425056
:101E200050405093D2024093D102DF91CF91089558
:101E30001F920F920FB60F9211242F933F938F93FF
:101E40009F93AF93BF938091220290912302A09120
:101E50002402B0912502309126020196A11DB11DE8
:101E6000232F2D5F2D3720F02D570196A11DB11D79
:101E7000209326028093220290932302A0932402AF
:101E8000B093250280911E0290911F02A091200222
:101E9000B09121020196A11DB11D80931E02909365
:101EA0001F02A0932002B0932102BF91AF919F9196
:101EB0008F913F912F910F900FBE0F901F9018950B
:101EC0008FB7F8942091220230912302409124028E
:101ED000509125028FBFB901CA0108959FB7F894A8
:101EE00020911E0230911F02409120025091210248
:101EF00086B5A89B06C08F3F21F02F5F3F4F4F4F05
:101F00005F4F9FBF542F432F322F2227280F311DA1
:101F1000411D511D82E0220F331F441F551F8A951A
:101F2000D1F7B901CA0108959B01AC017FB7F894BC
:101F300080911E0290911F02A0912002B091210277
:101F400066B5A89B05C06F3F19F00196A11DB11D94
:101F50007FBFBA2FA92F982F8827860F911DA11D0B
:101F6000B11D62E0880F991FAA1FBB1F6A95D1F7A8
:101F7000BC012DC0FFB7F89480911E0290911F0202
:101F8000A0912002B0912102E6B5A89B05C0EF3FC9
:101F900019F00196A11DB11DFFBFBA2FA92F982FCF
:101FA00088278E0F911DA11DB11DE2E0880F991F9A
:101FB000AA1FBB1FEA95D1F7861B970B885E93403B
:101FC000C8F2215030404040504068517C4F2115AC
:101FD00031054105510571F60895019739F0880FD3
:101FE000991F880F991F02970197F1F70895789428
:101FF00084B5826084BD84B5816084BD85B582600E
:1020000085BD85B5816085BDEEE6F0E080818160AB
:102010008083E1E8F0E010828081826080838081AB
:1020200081608083E0E8F0E0808181608083E1EB83
:10203000F0E0808184608083E0EBF0E0808181606B
:102040008083EAE7F0E08081846080838081826021
:10205000808380818160808380818068808310920A
:10206000C1000895CF93DF93482F50E0CA018656F0
:102070009F4FFC0134914A575F4FFA0184918823A6
:1020800069F190E0880F991FFC01E859FF4FA59175
:10209000B491FC01EE58FF4FC591D491662351F4E1
:1020A0002FB7F8948C91932F909589238C938881E6
:1020B00089230BC0623061F42FB7F8948C91932F71
:1020C000909589238C938881832B88832FBF06C0AA
:1020D0009FB7F8948C91832B8C939FBFDF91CF9106
:1020E0000895482F50E0CA0182559F4FFC0124916A
:1020F000CA0186569F4FFC0194914A575F4FFA01DF
:102100003491332309F440C0222351F1233071F07C
:10211000243028F42130A1F0223011F514C02630EB
:10212000B1F02730C1F02430D9F404C08091800090
:102130008F7703C0809180008F7D8093800010C0D6
:1021400084B58F7702C084B58F7D84BD09C080912E
:10215000B0008F7703C08091B0008F7D8093B00076
:10216000E32FF0E0EE0FFF1FEE58FF4FA591B49163
:102170002FB7F894662321F48C919095892302C09F
:102180008C91892B8C932FBF0895682F70E0CB0121
:1021900082559F4FFC012491CB0186569F4FFC0135
:1021A00044916A577F4FFB019491992319F420E0E1
:1021B00030E03CC0222351F1233071F0243028F468
:1021C0002130A1F0223011F514C02630B1F02730B3
:1021D000C1F02430D9F404C0809180008F7703C00F
:1021E000809180008F7D8093800010C084B58F77B0
:1021F00002C084B58F7D84BD09C08091B0008F7707
:1022000003C08091B0008F7D8093B000892F90E053
:10221000880F991F84589F4FFC01A591B4918C9110
:1022200020E030E0842311F021E030E0C90108957E
:1022300008951F920F920FB60F9211242F933F9380
:102240004F938F939F93EF93FF938091C00082FDF4
:102250001DC04091C60020916702309168022F5F37
:102260003F4F2F7330708091690290916A02281756
:10227000390771F0E0916702F0916802E95DFD4F66
:102280004083309368022093670202C08091C600A9
:10229000FF91EF919F918F914F913F912F910F90CF
:1022A0000FBE0F901F901895E091BB02F091BC02F9
:1022B000E05CFF4F8191919120813181821B930BD2
:1022C0008F739070892B11F00E94181108951F923E
:1022D0000F920FB60F9211242F933F938F939F93DA
:1022E000EF93FF932091AB023091AC028091AD024D
:1022F0009091AE022817390731F48091C1008F7D8B
:102300008093C10014C0E091AD02F091AE02E55996
:10231000FD4F20818091AD029091AE0201968F73A6
:1023200090709093AE028093AD022093C600FF910F
:10233000EF919F918F913F912F910F900FBE0F9032
:102340001F901895AF92BF92DF92EF92FF920F937A
:102350001F93CF93DF93EC017A018B01DD24403092
:1023600081EE580780E0680780E0780711F0DD24EF
:10237000D39491E0A92EB12CEC89FD89DD2069F080
:10238000C50108A002C0880F991F0A94E2F7808354
:1023900060E079E08DE390E005C0108260E874E8C9
:1023A0008EE190E0A80197010E941519215030405C
:1023B00040405040569547953795279580E120300D
:1023C000380720F0DD2011F0DD24D6CFE889F98927
:1023D0003083EA89FB89208319A2EE89FF89408135
:1023E00021E030E0C9010C8C02C0880F991F0A94CB
:1023F000E2F7482B4083EE89FF894081C9010D8CAB
:1024000002C0880F991F0A94E2F7482B4083EE8997
:10241000FF894081C9010E8C02C0880F991F0A9460
:10242000E2F7482B4083EE89FF8980810F8C02C040
:10243000220F331F0A94E2F7209528232083DF918F
:10244000CF911F910F91FF90EF90DF90BF90AF90D1
:102450000895DC011C96ED91FC911D97E05CFF4F07
:102460002191319180819181281B390B2F7330701C
:10247000C9010895DC011C96ED91FC911D97E05C6B
:10248000FF4F20813181E054F040DF01AE5BBF4F50
:102490008D919C9111972817390719F42FEF3FEF71
:1024A00007C08D919C91E80FF91F8081282F30E0A3
:1024B000C9010895DC011C96ED91FC911D97E05C2B
:1024C000FF4F20813181E054F040DF01AE5BBF4F10
:1024D0008D919C9111972817390719F42FEF3FEF31
:1024E00010C08D919C911197E80FF91F20818D915B
:1024F0009C91119701968F73907011969C938E9377
:1025000030E0C9010895DC0191968C919197882360
:1025100039F05496ED91FC915597808186FFF9CF63
:1025200091961C920895CF93DF93EC01EE85FF8581
:10253000E05CFF4F20813181E054F0402F5F3F4F3E
:102540002F733070DF01AE5BBF4F8D919C9111975F
:1025500028173907D1F3E05CFF4F80819181E05467
:10256000F040E80FF91F6083EE85FF85E05CFF4FC8
:1025700031832083EE89FF89208181E090E00F8CF8
:1025800002C0880F991F0A94E2F7282B208381E06C
:1025900089A3EC89FD8980818064808381E090E05B
:1025A000DF91CF9108951092B2021092B10288EE9D
:1025B00093E0A0E0B0E08093B3029093B402A093C4
:1025C000B502B093B60288EB91E09093B00280938D
:1025D000AF0287E292E09093BC028093BB028BE64D
:1025E00092E09093BE028093BD0285EC90E09093C0
:1025F000C0028093BF0284EC90E09093C20280936B
:10260000C10280EC90E09093C4028093C30281ECFD
:1026100090E09093C6028093C50282EC90E0909384
:10262000C8028093C70286EC90E09093CA02809320
:10263000C90284E08093CB0283E08093CC0287E0E0
:102640008093CD0285E08093CE0281E08093CF021B
:102650000895CF93DF930E94F70F0E94CD07C4E542
:10266000D1E10E946F072097E1F30E945411F9CF46
:10267000CF92DF92EF92FF920F931F93CF93DF934E
:102680007C016B018A01C0E0D0E00FC0D6016D91E2
:102690006D01D701ED91FC910190F081E02DC70112
:1026A0000995C80FD91F015010400115110571F788
:1026B000CE01DF91CF911F910F91FF90EF90DF90AE
:1026C000CF900895EF92FF920F931F938C01DC013E
:1026D000ED91FC910190F081E02D6DE009957C0178
:1026E000D801ED91FC910190F081E02DC8016AE0E4
:1026F00009959C012E0D3F1DC9011F910F91FF905F
:10270000EF900895CF93DF93EC016115710519F4F3
:1027100020E030E00FC0DB010D900020E9F71197B9
:10272000A61BB70BE881F9810280F381E02DAD0192
:1027300009959C01C901DF91CF910895EF92FF9215
:102740000F931F937C010E9482138C01C7010E948A
:102750006213080F191FC8011F910F91FF90EF908E
:102760000895AF92BF92CF92DF92EF92FF920F93B4
:102770001F93CF93DF935C016B01EE24FF24C0E035
:10278000D0E010C0D501ED91FC9100811181C6010E
:10279000BE010E944114682FC501F8010995E80E99
:1027A000F91E2196F60184819581C817D90750F347
:1027B000C701DF91CF911F910F91FF90EF90DF90B4
:1027C000CF90BF90AF900895EF92FF920F931F9319
:1027D0007C010E94B1138C01C7010E9462139C010D
:1027E000200F311FC9011F910F91FF90EF900895A5
:1027F0002F923F924F925F926F927F928F929F9211
:10280000AF92BF92CF92DF92EF92FF920F931F93FE
:10281000DF93CF93CDB7DEB73B014C0119012A01FD
:102820006D897E898F89988D6A197B098C099D092C
:10283000621A730A840A950AA40193010E94C318BC
:10284000E218F30804091509A80197010E94371935
:102850002A0D3B1D4C1D5D1DB901CA01CF91DF91B1
:102860001F910F91FF90EF90DF90CF90BF90AF90AE
:102870009F908F907F906F905F904F903F902F90A0
:102880000895FC01848195816817790748F40190C7
:10289000F081E02D309721F0E60FF71F8081089539
:1028A00080E00895FC0180819181009729F420E067
:1028B00030E040E050E004C00E948E009B01AC017B
:1028C000B901CA010895CF93DF93FC0184819581FA
:1028D0004817590768F4C081D181772767FD709543
:1028E000CE01840F951F0E94C5009C01009719F42A
:1028F0002FEF3FEF02C02C1B3D0BC901DF91CF91A1
:10290000089540E050E00E9463140895FC01DB014B
:102910002481358114964D915C91159724173507C4
:10292000A8F080819181009789F06D917C9161156B
:10293000710561F0241B350B820F931F0E94D0009C
:102940009C0180E0232B19F481E0089580E0089534
:10295000DC01FB0114968D919C911597892B31F424
:1029600061157105A9F090E0808108C00D90BC91BF
:10297000A02D6115710529F490E08C91882349F40C
:1029800007C0CD010E94D0009C0190E0232B09F4E8
:1029900091E0892F0895FC01DB0114962D913C9163
:1029A000159784819581821B930B84179507A0F05E
:1029B00080819181009781F06D917C916115710505
:1029C00059F0840F951FA9010E94E0009C0180E04E
:1029D000232B19F481E0089580E00895FC01DB01C8
:1029E0002481358114968D919C911597281739076C
:1029F00010F480E00895CF0140E050E00E94CB1435
:102A000008950F931F93CF93DF93EC018B016F5FBA
:102A10007F4F888199810E945816009711F480E0B9
:102A200005C0998388831B830A8381E0DF91CF915E
:102A30001F910F910895CF93DF93EC0188819981C5
:102A4000892B29F08A819B818617970760F4CE0134
:102A50000E940115882341F08C819D81892B19F4F6
:102A6000E881F981108281E0DF91CF910895EF92A2
:102A7000FF920F931F93CF93DF93EC017B016C8147
:102A80007D81E114F104C1F04115510599F08A01ED
:102A9000060F171FB8010E941B15882369F0888153
:102AA00099812C813D81820F931FB7010E94D9002B
:102AB0001D830C8381E001C080E0DF91CF911F91E5
:102AC0000F91FF90EF900895DF93CF9300D0CDB793
:102AD000DEB769831A82BE016F5F7F4F41E050E02D
:102AE0000E9437150F900F90CF91DF910895CF93EB
:102AF000DF93EC0188819981009711F00E94800E8C
:102B0000198218821D821C821B821A82DF91CF914A
:102B10000895EF92FF920F931F93CF93DF93EC01F1
:102B20007B018A01BA010E941B15882321F4CE0182
:102B30000E94771507C01D830C8388819981B70196
:102B40000E94D900CE01DF91CF911F910F91FF908C
:102B5000EF900895CF93DF93EC01198218821B82C6
:102B60001A821D821C821E826115710551F0DB01E3
:102B70000D900020E9F71197A61BB70BAD010E943D
:102B80008915DF91CF9108950F931F93182F092F67
:102B90006115710559F0DB010D900020E9F71197DF
:102BA000A61BB70BAD010E94891502C00E947715C4
:102BB000812F902F1F910F910895BF92CF92DF9296
:102BC000EF92FF920F931F93CF93DF93082FB92EAD
:102BD0006B017A01E9012417350710F4EA01790144
:102BE000802F9B2D6DE871E00E94AA15D6011496E6
:102BF0008D919C9115978E159F05D0F08C179D0790
:102C000008F4EC01D601ED91FC911197EC0FFD1F3A
:102C1000108110826D917C916E0D7F1D802F9B2DF8
:102C20000E94C415D601ED91FC91EC0FFD1F10839D
:102C3000802F9B2DDF91CF911F910F91FF90EF90EF
:102C4000DF90CF90BF9008950F931F938C01FB01ED
:102C5000248135810E94DD15C8011F910F910895CF
:102C6000CF93DF93EC01FB018617970761F060813A
:102C700071816115710529F0448155810E94891582
:102C800002C00E947715CE01DF91CF910895FC011B
:102C900011821082138212821582148216820E947F
:102CA00030160895FC01808191810E94800E089564
:102CB0006F927F928F929F92AF92BF92CF92DF924C
:102CC000EF92FF920F931F93CF93DF938C010097A6
:102CD00029F4CB010E94E30D8C01BBC08EEFE82EDE
:102CE0008FEFF82EE00EF11E4801860E971E8E140F
:102CF0009F0408F4ACC0D7014D915C911197461721
:102D00005707B8F04530510508F4A3C0CA0104972D
:102D10008617970708F49DC042505040461B570B3A
:102D2000F401419351936D937C93CF010E94800EE7
:102D300090C05B01A41AB50A3801640E751EA091FB
:102D4000D302B091D402E0E0F0E0CC24DD2447C00F
:102D5000A615B705A9F5CD91DC911197CE01029684
:102D60008A159B0568F1CE018A199B090296129675
:102D70002C91129713963C91059758F0F4012283F9
:102D80003383CA19DB09D183C083D7016D937C9348
:102D900009C04E5F5F4F4C0F5D1FF70151834083A9
:102DA000C901FC01C114D10431F0D6011396FC9382
:102DB000EE9312974EC0F093D402E093D30249C031
:102DC0008D919C911197E817F90708F4FC016D01AA
:102DD00012968C91129713969C919C01D901109791
:102DE00009F0B6CF8091D1029091D2028615970555
:102DF000E9F4E617F707D0F42091B2013091B3015E
:102E00002115310541F42DB73EB78091AE01909167
:102E1000AF01281B390B82169306C8F49092D20298
:102E20008092D102F7017183608313C0CB010E94AD
:102E3000E30DEC01009759F0D7014D915C91B80179
:102E40000E94B500C8010E94800E8E0102C000E001
:102E500010E0C801DF91CF911F910F91FF90EF908B
:102E6000DF90CF90BF90AF909F908F907F906F90AA
:102E700008950CD0EBC0E3D040F0DAD030F021F46C
:102E80005F3F19F0CCC0511115C1CFC0F0D098F3FD
:102E90009923C9F35523B1F3951B550BBB27AA27DB
:102EA00062177307840738F09F5F5F4F220F331F4D
:102EB000441FAA1FA9F333D00E2E3AF0E0E830D019
:102EC00091505040E695001CCAF729D0FE2F27D01C
:102ED000660F771F881FBB1F261737074807AB07EA
:102EE000B0E809F0BB0B802DBF01FF2793585F4F5F
:102EF0002AF09E3F510568F092C0DCC05F3FECF3C2
:102F0000983EDCF3869577956795B795F7959F5F23
:102F1000C9F7880F911D9695879597F90895E1E077
:102F2000660F771F881FBB1F621773078407BA07D6
:102F300020F0621B730B840BBA0BEE1F88F7E09531
:102F4000089504D06894B111B5C0089598D088F060
:102F50009F5790F0B92F9927B751A0F0D1F0660F85
:102F6000771F881F991F1AF0BA95C9F712C0B130A0
:102F700081F09FD0B1E008959CC0672F782F8827FB
:102F8000B85F39F0B93FCCF3869577956795B395DF
:102F9000D9F73EF490958095709561957F4F8F4F4E
:102FA0009F4F0895E89409C097FB3EF49095809553
:102FB000709561957F4F8F4F9F4F9923A9F0F92FFF
:102FC00096E9BB279395F695879577956795B7957D
:102FD000F111F8CFFAF4BB0F11F460FF1BC06F5F63
:102FE0007F4F8F4F9F4F16C0882311F096E911C075
:102FF000772321F09EE8872F762F05C0662371F096
:1030000096E8862F70E060E02AF09A95660F771FA9
:10301000881FDAF7880F9695879597F9089597F99D
:103020009F6780E870E060E008959FEF80EC08956E
:1030300000240A9416161706180609060895002497
:103040000A9412161306140605060895092E039411
:10305000000C11F4882352F0BB0F40F4BF2B11F485
:1030600060FF04C06F5F7F4F8F4F9F4F089557FDE4
:103070009058440F551F59F05F3F71F04795880FE6
:1030800097FB991F61F09F3F79F08795089512167D
:1030900013061406551FF2CF4695F1DF08C0161629
:1030A00017061806991FF1CF8695710561050894DA
:1030B0000895E894BB2766277727CB0197F90895F1
:1030C0000BD0C4CFB5DF28F0BADF18F0952309F094
:1030D000A6CFABCF1124EECFCADFA0F3959FD1F3DB
:1030E000950F50E0551F629FF001729FBB27F00DB6
:1030F000B11D639FAA27F00DB11DAA1F649F66270B
:10310000B00DA11D661F829F2227B00DA11D621F59
:10311000739FB00DA11D621F839FA00D611D221F13
:10312000749F3327A00D611D231F849F600D211DF7
:10313000822F762F6A2F11249F5750408AF0E1F09A
:1031400088234AF0EE0FFF1FBB1F661F771F881FE3
:1031500091505040A9F79E3F510570F060CFAACF23
:103160005F3FECF3983EDCF3869577956795B795CE
:10317000F795E7959F5FC1F7FE2B880F911D9695F8
:10318000879597F90895629FD001739FF001829F00
:10319000E00DF11D649FE00DF11D929FF00D839FE6
:1031A000F00D749FF00D659FF00D9927729FB00D83
:1031B000E11DF91F639FB00DE11DF91FBD01CF0196
:1031C00011240895991B79E004C0991F961708F0FF
:1031D000961B881F7A95C9F780950895AA1BBB1B7B
:1031E00051E107C0AA1FBB1FA617B70710F0A61B07
:1031F000B70B881F991F5A95A9F780959095BC0128
:10320000CD01089597FB092E07260AD077FD04D03B
:10321000E5DF06D000201AF4709561957F4F089580
:10322000F6F7909581959F4F0895A1E21A2EAA1B5B
:10323000BB1BFD010DC0AA1FBB1FEE1FFF1FA21766
:10324000B307E407F50720F0A21BB30BE40BF50B63
:10325000661F771F881F991F1A9469F760957095EC
:10326000809590959B01AC01BD01CF01089597FB1E
:10327000092E05260ED057FD04D0D7DF0AD0001C3A
:1032800038F450954095309521953F4F4F4F5F4F03
:103290000895F6F790958095709561957F4F8F4FC3
:1032A0009F4F0895EE0FFF1F0590F491E02D0994B4
:1032B00010E0C6ECD0E004C0FE010E945419229632
:0A32C000C83CD107C9F7F894FFCF0E
:1032CA0032003100486F6D6500476F74486F6D6555
:1032DA0000476F2046572000476F2042572000477B
:1032EA006F696E67486F6D6546756E6374696F6E58
:1032FA000057616974696E67466F724163746976D3
:10330A006174696F6E0045786974696E67416374A8
:10331A0069766174696F6E0021000A0021476F485F
:10332A006F6D650A00214E65774472696E6B000005
:10333A005374617274696E67207374657070657214
:10334A0020646576207465737465722E000001002E
:10335A00009C183831D44970620C7BA89344ACE0C5
:10336A00C47CDD96001E005A0001AC0DD007800017
:10337A00D5020000000000009312381329125A12D5
:04338A003A1283125E
:00000001FF
